:060000000A128A110C280F
:10000800FE00030EF0000A08F1000A128A15282FD4
:100018000A128A110F280A128A11FC270A128A1159
:10002800BF000A128A11FB270A128A11FB00B601C7
:10003800B701B801B901BA01BB01BC01BD01BE01DC
:10004800F901FA0183010A128A11F42A83120313AF
:10005800AE002A0A031D312832283728B601B70115
:10006800B801FF30AE004330F6008030F7000A12C6
:100078008A156E260A128A11D030F600C030F700B1
:100088000A128A156E260A128A111230F600D0302A
:10009800F7000A128A156E260A128A11C8308312CE
:1000A8000313A80020300A128A1521260A128A1181
:1000B800C93083120313A80020300A128A1521269A
:1000C8000A128A11CA3083120313A80020300A12B8
:1000D8008A1521260A128A11323083120313AD00C1
:1000E8000130AD022D0A031D7A287B287428C830F8
:1000F800A8006430F2000030F3003708F500360835
:10010800F4000A128A1565270A128A117208303E0D
:100118000A128A1521260A128A11C930831203137A
:10012800A8000A30A0000030A1000A30F200003018
:10013800F3003708F5003608F4000A128A15652717
:100148000A128A11730883120313A3007208A2000B
:100158000A128A15EE260A128A118312031320083E
:10016800303E0A128A1521260A128A11CA308312D1
:100178000313A8000A30A0000030A1003708A3002C
:100188003608A2000A128A15EE260A128A1183126C
:1001980003132008303E0A128A1521260A128A11F2
:1001A8002A30831203132E060319DB28DC280629BC
:1001B80023302E060319E128E22806292E0A0319FE
:1001C800E628E7280629033038020318EC28ED282A
:1001D80006293708F3003608F2000A30F400003028
:1001E800F5000A128A11DA240A128A1183120313FB
:1001F8002E087207B6000030031801307307B700E5
:100208000130B8072A302E06031D0B290C290F29A7
:10021800B601B701B80123302E06031D142915298C
:10022800BB2900303702B53003193602031C1D29DB
:100238001E292229B430B6000030B7000A128A15E8
:1002480036260A128A119530F6008230F7000A1213
:100258008A156E260A128A118930F6009030F70046
:100268000A128A156E260A128A11ED30F6009D30A0
:10027800F7000A128A156E260A128A113C30831278
:100288000313BB001215AA299A30A8006430F200A3
:100298000030F3003B08AB00AC012B08F4002C083D
:1002A800F5000A128A117E270A128A117208303E56
:1002B8000A128A1521260A128A119B308312031307
:1002C800A8000A30A4000030A5000A30F20000306F
:1002D800F3003B08AB00AC012B08F4002C08F50038
:1002E8000A128A117E270A128A11730883120313CD
:1002F800A7007208A6000A128A15A7270A128A11EF
:10030800831203132408303E0A128A1521260A1282
:100318008A119C3083120313A8000A30A40000300D
:10032800A5003B08AB00AC012B08A6002C08A700D1
:100338000A128A15A7270A128A118312031324089E
:10034800303E0A128A1521260A128A1183120313D3
:100358003B08031DB029B129482912110A128A1530
:1003680036260A128A11113083120313BF000800BF
:1003780083120313AE002A0A031DC329C429CA29FC
:10038800BA01B901FF30AE00BD01BE013230AD0087
:100398000130AD022D0A031DD229D329CC29013001
:1003A800F6008030F7000A128A156E260A128A11A2
:1003B800E730F600C030F7000A128A156E260A12D6
:1003C8008A111230F600D030F7000A128A156E260C
:1003D8000A128A112A30831203132E060319F529EB
:1003E800F6292C2A23302E060319FB29FC292C2A4E
:1003F8002E0A0319002A012A2C2A0130B9070330D2
:1004080039020318082A092A172A0A30F2003E0876
:100418000A128A15FA250A128A11831203132E0763
:10042800BE00BA014D2A0530390203181C2A1D2ABC
:100438004D2A0A30F2003D080A128A15FA250A12D6
:100448008A11831203132E07BD000130BA004D2A0A
:100458002A302E06031D312A322A3E2A3A08031969
:10046800362A372A3B2ABD010230B9004D2ABE017F
:10047800B9014D2A23302E06031D432A442A4D2A4A
:1004880007151215DD30BF000A128A1536260A1222
:100498008A11831203133A08031D532A542A672A20
:1004A800C930A80020300A128A1521260A128A119A
:1004B800CA3083120313A80020300A128A15212695
:1004C8000A128A11792AC630A80020300A128A1521
:1004D80021260A128A11C73083120313A80020307C
:1004E8000A128A1521260A128A11C93083120313A7
:1004F800A8000A30F2000030F3003E08AB00AC015F
:100508002B08F4002C08F5000A128A117E270A121B
:100518008A117208303E0A128A1521260A128A1197
:10052800CA3083120313A8000A30A4000030A500C3
:100538003E08AB00AC012B08A6002C08A7000A1245
:100548008A15A7270A128A11831203132408303E3A
:100558000A128A1521260A128A11C8308312031337
:10056800A8003A300A128A1521260A128A11C630C2
:1005780083120313A8000A30F2000030F3003D088C
:10058800AB00AC012B08F4002C08F5000A128A1104
:100598007E270A128A117208303E0A128A1521260D
:1005A8000A128A11C73083120313A8000A30A40064
:1005B8000030A5003D08AB00AC012B08A6002C08B4
:1005C800A7000A128A15A7270A128A118312031391
:1005D8002408303E0A128A1521260A128A110800B8
:1005E80083120313B4010A128A11E3270A128A112B
:1005F80001300A128A154B260A128A118312031334
:10060800B50002303F06031D0A2B0B2B672B350361
:10061800031D0F2B102B3B2B0A128A1536260A12A4
:100628008A11113083120313BF00B4017C30F60025
:10063800C030F7000A128A156E260A128A114D3048
:1006480083120313B3001930B2004F30B100B10B5D
:100658002B2BB20B2B2BB30B2B2B0A128A153626FE
:100668000A128A11FF3083120313BC00672B023071
:100678003506031D402B412B4C2B1230BF000A12AC
:100688008A1536260A128A1183120313B401362BEF
:1006980003303506031D512B522B552B1330BF0049
:1006A800432B04303506031D5A2B5B2B672B143064
:1006B800BF000A128A1536260A128A1101308312DF
:1006C8000313B400362BDD303F06031D6C2B6D2B56
:1006D800992B04303506031D722B732B872B340896
:1006E8000319772B782BF62B3E081E3EBE003C30B4
:1006F8003E02031C802B812BAA2B0130BD073E082C
:10070800C43EBE00F62B05303506031D8C2B8D2B01
:10071800902BCC30BF00F62B06303506031D952BE9
:10072800962BAA2BBB30BF00F62BCC303F06031DFF
:100738009E2B9F2BF62B04303506031DA42BA52BCF
:10074800AA2B07151215DD30BF00F62BF62B0A125F
:100758008A117D240A128A11023083120313BF0002
:100768000A128A1536260A128A11132C0A128A15B9
:1007780093260A128A11132C3C08AA0035080A127B
:100788008A11BC210A128A11132C0A128A11F62521
:100798000A128A11132C07111211132C07111211A6
:1007A8000A128A1536260A128A1102308312031396
:1007B800BF00132C3C08AA0035080A128A11BC2174
:1007C8000A128A11132C3C08AA0035080A128A1149
:1007D8002A200A128A11132C0A128A15D3250A1202
:1007E8008A11132C3F08013A0319AB2B033A03195A
:1007F800BA2B133A0319C02B033A0319DE2B013A1B
:100808000319E72B073A0319F02BAF3A0319D22B38
:10081800773A0319CF2B113A0319C92B132C8312DA
:100828000313BC01FC2A0A128A110C28C330F700F2
:10083800CD30F600F60B1E2CF70B1E2CF2013330D0
:100848000A128A15B8260A128A111B30F7009E3040
:10085800F600F60B2D2CF70B2D2C0000F20133308F
:100868000A128A15B8260A128A11A630F600F60B63
:100878003B2C0000F20133300A128A15B8260A12FE
:100888008A11462C472C0000F20102300A128A1500
:10089800B8260A128A11A630F600F60B512C000071
:1008A800F20128300A128A15B8260A128A11A630CF
:1008B800F600F60B5D2C0000F20101300A128A15D1
:1008C800B8260A128A110430F7003D30F600F60BFC
:1008D8006B2CF70B6B2C702CF2010C300A128A155A
:1008E800B8260A128A11A630F600F60B792C0000F9
:1008F800080083120313AD01AE012D08803EA80045
:10090800FF300A128A1521260A128A110130831231
:100918000313AD070318AE0A0030AE0700302E02ED
:10092800103003192D02031C9A2C9B2C812C6F303C
:10093800F600C130F7000A128A156E260A128A11CB
:100948005230F6009030F7000A128A156E260A1205
:100958008A1183120313AF01B0012F08D03EA800FB
:10096800FF300A128A1521260A128A1101308312D1
:100978000313AF070318B00A0030B0070030300285
:10098800103003192F02031CCA2CCB2CB12C333086
:1009980083120313AC00BB30AB00DF30AA00AA0BF4
:1009A800D32CAB0BD32CAC0BD32C0800F601F701DE
:1009B800721CDF2CE02CE62C7408F6070318F70AE3
:1009C8007508F70701300310F40DF50DFF3E031D00
:1009D800E72C01300310F30CF20CFF3E031DEE2C44
:1009E80072087304031DF92CFA2CDC2C7708F30029
:0609F8007608F200080081
:100A000005308A000408840A8207003453344534D0
:100A100054342034543449344D344534203428344B
:100A20004D344D343A3453345334293400342A3459
:100A30003A3443344C344534413452342034203435
:100A400023343A3445344E3454344534523400342B
:100A500034342E34533474346134723474342F3457
:100A600052346534733475346D3465342034003455
:100A700045346E346A346F347934203479346F34C9
:100A80007534723420346D34653461346C34003420
:100A90005334453454342034543445344D34503474
:100AA0002E34203428342A344334293400344D344D
:100AB0006934633472346F34773461347634653436
:100AC00020346F34763465346E34003433342E344D
:100AD00043346F346E34763465346334743469343B
:100AE0006F346E3420340034203450346F34773413
:100AF0006534723469346E34673420344F344E3484
:100B0000003450344F3457344534523420343D345B
:100B10002034393430343034573400345434693468
:100B20006D3465342D34523465346D342E343D3497
:100B3000203400345034723465342D3448346534F4
:100B40006134743469346E34673400345434693435
:100B50006D346534203455347034213421342134DB
:100B6000003435342E345034613475347334653484
:100B70002034003432342E344734723469346C34C7
:100B80006C342034003431342E344D3469346334C1
:100B900072346F342034003434342E34533474348B
:100BA00061347234743420340034543445344D3458
:100BB000503420343A342034003436342E34533414
:100BC00074346F34703420340034543449344D3428
:100BD00045343D3420340034543449344D344534A4
:100BE0002D3400347334653463340034E030F6005F
:100BF0008130F7000A128A156E260A128A118C308B
:100C000083120313A8000A30F2000030F3003E08FC
:100C1000AA00AB012A08F4002B08F5000A128A1179
:100C20007E270A128A117208303E0A128A1521267E
:100C30000A128A118D3083120313A8000A30A4000F
:100C40000030A5003E08AA00AB012A08A6002B0828
:100C5000A7000A128A15A7270A128A118312031302
:100C60002408303E0A128A1521260A128A118B3076
:100C700083120313A8003A300A128A1521260A1299
:100C80008A11893083120313A8000A30F200003061
:100C9000F3003D08AA00AB012A08F4002B08F50078
:100CA0000A128A117E270A128A117208303E0A122D
:100CB0008A1521260A128A118A3083120313A8008A
:100CC0000A30A4000030A5003D08AA00AB012A08A4
:100CD000A6002B08A7000A128A15A7270A128A1154
:100CE000831203132408303E0A128A1521260A12A1
:100CF0008A112330F600C130F7000A128A156E26D9
:100D00000A128A11AC30F6009130F7000A128A15E7
:100D10006E260A128A11D830F600D130F7000A1276
:100D20008A156E260A128A11831203133D08031DC9
:100D30009A2E9B2ED12E3E08031D9F2EA02ED12E23
:100D4000121107110A128A1536260A128A11A130C9
:100D5000F600C430F7000A128A156E260A128A11AC
:100D60003330F6009030F7000A128A156E260A1208
:100D70008A111A3083120313AC005E30AB006D3061
:100D8000AA00AA0BC12EAB0BC12EAC0BC12EC82ED4
:100D90000A128A1536260A128A11023083120313A8
:100DA000BF00080083120313881108158814081463
:100DB0006430F2000030F300FF30F2070318F30A4A
:100DC000FF30F307720A031DE92E730A031DE92E93
:100DD000EA2EDC2E831203130618EF2EF02EF22ECD
:100DE00001307D2F8618F52EF62EF82E02307D2F3D
:100DF0000619FB2EFC2EFE2E03307D2F88150811C0
:100E0000881408146430F2000030F300FF30F20759
:100E10000318F30AFF30F307720A031D132F730A36
:100E2000031D132F142F062F831203130618192FD7
:100E30001A2F1C2F04307D2F86181F2F202F222FB2
:100E400005307D2F0619252F262F282F06307D2FC0
:100E500088150815881008146430F2000030F3007B
:100E6000FF30F2070318F30AFF30F307720A031D7D
:100E70003D2F730A031D3D2F3E2F302F8312031386
:100E80000618432F442F462F07307D2F8618492FF1
:100E90004A2F4C2F08307D2F06194F2F502F522FDD
:100EA00009307D2F88150815881408106430F20069
:100EB0000030F300FF30F2070318F30AFF30F307A6
:100EC000720A031D672F730A031D672F682F5A2F9D
:100ED0008312031306186D2F6E2F702F2A307D2F6B
:100EE0008618732F742F762F00307D2F0619792FD7
:100EF0007A2F7C2F23307D2FFF30080083120313BD
:100F0000A101F31F842F852F8C2FF209F309F20A18
:100F10000319F30A0130A100F51F8F2F902F972F8F
:100F2000F409F509F40A0319F50A0130A106A20132
:100F3000A3017208730403199E2F9F2FD42F013031
:100F4000A000AB2F01300310F20DF30DFF3E031D87
:100F5000A32F0130A007F31FAE2FAF2FA22F013018
:100F60000310A20DA30DFF3E031DB02F73087502E1
:100F7000031DBC2F72087402031CBF2FC02FC72F84
:100F80007208F4027308031CF503F5022214013001
:100F90000310F30CF20CFF3E031DC82F0130A0021A
:100FA000031DD32FD42FAF2F21080319D82FD92FEA
:100FB000DE2FA209A309A20A0319A30A2308F3003A
:100FC0002208F20008000A128A15DD250A128A1189
:100FD0000A128A15EA250A128A11831603130711C9
:100FE0008312031307110A128A150D260A128A1199
:0A0FF0000B178B17080001340134C1
:101BA6001E3083120313BE00BD0107151215DD306A
:101BB600BF0008008316031308080F3988000911AF
:101BC60089100A128A111A240A128A150800831625
:101BD60003130608073886000808F03988008113C1
:101BE6008312031388150815881408140800F400D6
:101BF600F301741CFF2D002E022E7208F30703104A
:101C0600F20D0310F40C7408031D0A2E0B2EFC2D86
:101C16007308080083120313121392121212921100
:101C2600121192101210831603138C1483120313CD
:101C36008C10FA30831603139200080083120313E4
:101C4600A900F20128080A128A15B8260A128A156E
:101C5600F201F20A8312031329080A128A15B8261A
:101C66000A128A150800F20101300A128A15B826EE
:101C76000A128A150D30F800AF30F700B630F600BC
:101C8600F60B432EF70B432EF80B432E00000800ED
:101C9600F4000A128A11D2260A128A15F50074086F
:101CA600031D562E572E592E75086D2E750A0319CB
:101CB6005D2E5E2E652E7B080319622E632E652E21
:101CC600FB01572E750A031D692E6A2E6C2E0130F4
:101CD600FB00FF300800F20177080A128A15B826C1
:101CE6000A128A15862EF201F20A760884000A1272
:101CF6008A1100250A128A150A128A15B8260A12AE
:101D06008A150130F607760884000A128A11002522
:101D16000A128A15003A031D912E922E762E08007D
:101D2600BE30F6008030F7000A128A156E260A12B7
:101D36008A15B530F600C030F7000A128A156E26ED
:101D46000A128A156130F6009030F7000A128A15D9
:101D56006E260A128A15C730F600D030F7000A122E
:101D66008A156E260A128A150800F5007218BC2E0E
:101D7600C02E831203130915C32E831203130911F0
:101D86007508F03988008914A630F300F30BC92EC4
:101D9600000083120313891075080F39F30003300E
:101DA6000310F30DFF3E031DD32E0310730D8800A1
:101DB6008914A630F300F30BDE2E00008312031302
:101DC60089101B30F4009E30F300F30BE82EF40B61
:101DD600E82E0000080083120313200821040319CB
:101DE600F52EF62E232F0130A400022F013003100A
:101DF600A00DA10DFF3E031DFA2E0130A407A11F61
:101E0600052F062FF92E21082302031D0C2F20086B
:101E16002202031C0F2F102F162F2008A2022108C2
:101E2600031CA303A30201300310A10CA00CFF3E68
:101E3600031D172F0130A402031D222F232F062F67
:101E46002308A1002208A0000800831203138C1C9B
:101E56002D2F2E2F5E2F0130F9070318FA0A0030B6
:101E6600FA07203079064E3003197A06031D3C2FF7
:101E76003D2F5D2FF901FA013E080319432F442F28
:101E8600472F0130BE025D2F3E08031D4B2F4C2FFE
:101E9600552F3D080319502F512F552FBD013C30AA
:101EA600BE005D2F3B080319592F5A2F5D2F0130B5
:101EB600BB025D2F8C1071088A00700E8300FE0E27
:101EC6007E0E0900F601F7017208730403196C2FE0
:101ED6006D2FA22F0130F800792F01300310F20D7B
:101EE600F30DFF3E031D712F0130F807F31F7C2F02
:101EF6007D2F702F01300310F60DF70DFF3E031DE9
:101F06007E2F73087502031D8A2F72087402031C44
:101F16008D2F8E2F952F7208F4027308031CF5037C
:101F2600F502761401300310F30CF20CFF3E031D8C
:101F3600962F0130F802031DA12FA22F7D2F7708BF
:101F4600F3007608F2000800F70183120313A71FB7
:101F5600AD2FAE2FB52FA609A709A60A0319A70A02
:101F66000130F700A51FB82FB92FBE2FA409A50968
:101F7600A40A0319A50A240825040319C32FC42F8C
:101F8600F12F0130F600D02F01300310A40DA50D5E
:101F9600FF3E031DC82F0130F607A51FD32FD42FF0
:101FA600C72F25082702031DDA2F24082602031C43
:101FB600DD2FDE2FE42F2408A6022508031CA70325
:101FC600A70201300310A50CA40CFF3E031DE52F4C
:101FD6000130F602031DF02FF12FD42F77080319D5
:101FE600F52FF62FFB2FA609A709A60A0319A70A9C
:0A1FF6002708A5002608A400080033
:02400E00FB3F76
:00000001FF
